:100000000C9463000C948B000C948B000C948B006C
:100010000C948B000C948B000C948B000C948B0034
:100020000C948B000C948B000C948B000C948B0024
:100030000C948B000C948B000C948B000C948B0014
:100040000C9489030C948B000C9454040C948B0036
:100050000C948B000C948B000C948B000C948B00F4
:100060000C948B000C948B000000000024002700EF
:100070002A0000000000250028002B0000000000DE
:1000800023002600290004040404040404040202DA
:100090000202020203030303030301020408102007
:1000A0004080010204081020010204081020000012
:1000B0000007000201000003040600000000000029
:1000C0000000F002960511241FBECFEFD8E0DEBF7E
:1000D000CDBF14E0A0E0B1E0EAE7FDE002C005908A
:1000E0000D92A030B107D9F714E0A0E0B4E001C050
:1000F0001D92AB3AB107E1F710E0C6ECD0E004C0C6
:100100002297FE010E94B706C23CD107C9F70E94A0
:1001100082030C94BB060C940000FC018081861BBA
:10012000668347831582148280870895CF92EF9269
:100130000F931F93CF93DF93EC01362FC42E6A30B9
:1001400031F0EC81FD8118856D30C9F40EC08C81D1
:100150009D81688570E09B01280F391F0E94510620
:10016000281B390B3D832C832EC0CF01612F70E0FB
:100170000E945106E81BF90BFD83EC8324C0EA8042
:10018000CF01612F70E00E9451064E81480F2E2D45
:100190002F5FCF01612F70E00E945106269F202D16
:1001A00011248F81280FCE01632F09810E947101D4
:1001B0008B81298130E0280F311D8C819D81820F38
:1001C000931F9D838C83DF91CF911F910F91EF90AF
:1001D000CF900895FF920F931F93CF93DF93EC017D
:1001E0008B01F42E06C0CE014F2D0E9496000F5FAA
:1001F0001F4FF80160816623B1F7DF91CF911F9106
:100200000F91FF900895FC0141850E94960008958A
:10021000CF93DF93EC010E94EA00CE016AE00E94D6
:100220000301DF91CF910895FC0141850E940801EF
:100230000895FC0184E8808385E0818398E09283BF
:1002400091E0938315821482868387838AE780876F
:100250008FEF818712860895FC0162870895EF92DF
:100260000F93CF93DF93EC0160E040E023E803E8D5
:10027000EE240E94E2011D821C82DF91CF910F913A
:10028000EF900895EF92FF920F931F93DF93CF9318
:1002900000D0CDB7DEB77C01162F65E129834A83F4
:1002A0000E94EA02C701612F0E94E402C70129816E
:1002B000622F0E94E402C70165E70E94EA02C701BB
:1002C0004A81642F0E94E402C701602F0E94E40269
:1002D0000F900F90CF91DF911F910F91FF90EF90B2
:1002E00008952F923F924F925F926F927F928F92DA
:1002F0009F92AF92BF92CF92DF92EF92FF920F93B5
:100300001F93CF93DF93EC01F42ED22E602E77242F
:10031000772767FD709560527040669E5001679E1A
:10032000B00C769EB00C11248BE192E0A80EB91EA1
:10033000882499241E2D120F4E2C55242DC02F2DAC
:10034000280DCE01622F4D2D012F0E944201CE01BA
:100350006CE50E94EA022224332415C0F501808155
:1003600090E0022C02C0959587950A94E2F780FFF1
:1003700003C0CE016C2D02C0CE016A850E94E4024A
:100380000894211C311C2414350444F30894811C66
:10039000911C0894A11CB11C8614970484F2DF916F
:1003A000CF911F910F91FF90EF90DF90CF90BF9072
:1003B000AF909F908F907F906F905F904F903F9005
:1003C0002F900895CF92DF92EF920F931F93CF93C8
:1003D000DF93EC01CC24C3948C2D841B800FC61AB0
:1003E000C20E8C9D60011124CE010E944201CE01FB
:1003F0006CE50E94EA0200E010E006C0CE016E2D1E
:100400000E94E4020F5F1F4F0C151D05B8F3DF912A
:10041000CF911F910F91EF90DF90CF900895CF93E0
:10042000DF93EC0182E061E00E94350483E061E04B
:100430000E94350484E061E00E94350485E061E0BB
:100440000E9435045D9ACE010E94E202CE016AEC60
:100450000E94EA02CE0163E00E94E402CE0160E263
:100460000E94E402CE016CE00E94E402CE0161E051
:100470000E94E402CE016BEB0E94EA02CE0161E031
:100480000E94E402CE0161ED0E94EA02CE0164E91D
:100490000E94EA02CE0160E20E94EA02CE016FE011
:1004A0000E94E40264E670E080E090E00E94D103E4
:1004B000CE0167EA0E94EA02CE016CEB0E94EA02DA
:1004C000CE0163E00E94E402CE0160E00E94E402FB
:1004D000CE0161E00E94E402CE016EEC0E94EA02CD
:1004E000CE0160E00E94E402CE0162E00E94E402DC
:1004F000CE0164E00E94E402CE0166E00E94E402C4
:10050000CE0168E00E94E402CE016AE00E94E402AB
:10051000CE016CE00E94E402CE016FE00E94E40292
:10052000CE0160E00E94E402CE0162E00E94E4029B
:10053000CE0164E00E94E402CE0166E00E94E40283
:10054000CE0168E00E94E402CE016AE00E94E4026B
:10055000CE016CE00E94E402CE016FE00E94E40252
:10056000CE0160E00E94E402CE0165E00E94E40258
:10057000CE016AE00E94E402CE016FE00E94E40234
:10058000CE010E942F0164E670E080E090E00E94BE
:10059000D103CE016FEA0E94EA02DF91CF91089564
:1005A00020E030E080E85B98982F962311F05C9A69
:1005B00001C05C985B9A86952F5F3F4F28303105CC
:1005C00091F708955A9808955B985C9A5B9A0E94F7
:1005D000D00208955B985C985B9A0E94D0020895BF
:1005E00080E094E00E9419010895EF920F9388E94A
:1005F00094E060E071E00E94270680E094E063E010
:100600000E942C0180E094E060E040E023E80AE1F1
:1006100033E0E32E0E94E20180E094E065E04AE0EE
:100620000E948D0080E094E063E171E040EE0E9462
:10063000EA0068E873E180E090E00E94D10388E975
:1006400094E067E271E00E94270680E094E060E0B9
:100650000E942C0180E094E065E040E20E948D0061
:1006600080E094E06DE371E00E94140180E094E08A
:1006700060E571E043E00E94080180E094E062E7F9
:1006800071E04EE60E94080180E094E065E044E6F7
:100690000E948D0080E094E069EA71E04CEF0E94D6
:1006A000080180E094E06BEB71E04FE10E940801EB
:1006B00080E094E06BEC71E043EE0E94080188E971
:1006C00094E06EED71E00E942706FFCFCF93DF9399
:1006D000C8E9D4E0CE0140E855E260E070E00E9455
:1006E0009204CE016AEF71E00E94270680E094E058
:1006F0000E940F02CE0163E072E00E942706DF91A4
:10070000CF9108950E94FB030E9466030E94F502A8
:10071000FDCF1F920F920FB60F9211242F933F938C
:100720008F939F93AF93BF9380910F049091100488
:10073000A0911104B0911204309113040196A11DEF
:10074000B11D232F2D5F2D3720F02D570196A11DB0
:10075000B11D2093130480930F0490931004A09371
:100760001104B093120480910B0490910C04A09199
:100770000D04B0910E040196A11DB11D80930B04D0
:1007800090930C04A0930D04B0930E04BF91AF910D
:100790009F918F913F912F910F900FBE0F901F90BF
:1007A0001895EF92FF920F931F937B018C018FB7E7
:1007B000F89420910F04309110044091110450914D
:1007C00012048FBF6FB7F89480910F0490911004BA
:1007D000A0911104B09112046FBF821B930BA40B64
:1007E000B50BE816F9060A071B0760F71F910F9172
:1007F000FF90EF900895789484B5826084BD84B5AD
:10080000816084BD85B5826085BD85B5816085BD0B
:10081000EEE6F0E0808181608083E1E8F0E08081B5
:1008200082608083808181608083E0E8F0E0808165
:1008300081608083E1EBF0E0808184608083E0EB85
:10084000F0E0808181608083EAE7F0E0808184606D
:1008500080838081826080838081816080838081C9
:10086000806880831092C1000895282F30E0C9016C
:1008700086569F4FFC019491F901EA57FF4FE4918E
:10088000EE2389F0F0E0EE0FFF1FE859FF4FA5912E
:10089000B491662329F48C91909589238C930895C3
:1008A0008C91892B8C9308951F920F920FB60F9203
:1008B00011242F933F934F935F936F937F938F9365
:1008C0009F93AF93BF93EF93FF934091C600209106
:1008D000940430919504C901019660E870E00E948B
:1008E0006506BC018091960490919704681779077A
:1008F00041F02C5E3B4FF901408370939504609367
:100900009404FF91EF91BF91AF919F918F917F914F
:100910006F915F914F913F912F910F900FBE0F906C
:100920001F9018958F929F92AF92BF92DF92EF9295
:10093000FF920F931F93CF93DF93EC017A018B010A
:10094000413482E458078FE0680780E078070CF0B4
:100950007FC060E874E88EE190E0A80197010E94F2
:100960009A06CA01B901615070408040904022E06F
:1009700030E040E050E00E949A0649015A01A5018A
:100980009401209530954095509594E0220F331FA7
:10099000441F551F9A95D1F760E074E284EF90E010
:1009A0000E949A06CA01B9012FEF30E040E050E002
:1009B0000E943206A80197010E949A06C90121509F
:1009C0003F4F121613061CF4D82EDA9403C0DD2410
:1009D000D394D81A60E079E08DE390E0A801970104
:1009E0000E949A06CA01B90161507040804090404F
:1009F00022E030E040E050E00E949A0620953095D9
:100A00004095509583E0220F331F441F551F8A9550
:100A1000D1F760E074E284EF90E00E949A06CA0188
:100A2000B9012FEF30E040E050E00E943206A8010B
:100A300097010E949A06C90121503F4F12161306D2
:100A40001CF4282F215002C021E0281B2D1500F591
:100A5000E885F98581E090E00A8802C0880F991F37
:100A60000A94E2F7808360E079E08DE390E0A801EA
:100A700097010E949A06CA01B901615070408040F6
:100A8000904022E030E040E050E00E949A0604C02E
:100A9000E885F98510829401EC81FD813083EE8137
:100AA000FF812083EA85FB85808121E030E0A90178
:100AB0000E8402C0440F551F0A94E2F7842B8083F2
:100AC000EA85FB858081A9010F8402C0440F551F70
:100AD0000A94E2F7842B8083EA85FB85808108886D
:100AE00002C0220F331F0A94E2F7822B8083DF912A
:100AF000CF911F910F91FF90EF90DF90BF90AF903B
:100B00009F908F900895FC01A085B18521898C91DB
:100B100090E0022E02C0959587950A94E2F780FF37
:100B2000F6CF0484F585E02D608308958AEF93E085
:100B3000909399048093980484E194E090939B04AB
:100B400080939A0485EC90E090939D0480939C049C
:100B500084EC90E090939F0480939E0480EC90E05E
:100B60009093A1048093A00481EC90E09093A3045F
:100B70008093A20486EC90E09093A5048093A40453
:100B800084E08093A60483E08093A70487E08093A9
:100B9000A80485E08093A90481E08093AA040895C5
:100BA0000F931F93CF93DF93EC018B0109C00F5F6D
:100BB0001F4FE881F9810190F081E02DCE01099568
:100BC000F8016081662399F7DF91CF911F910F9112
:100BD0000895EF92FF920F931F93CF93DF93EC0151
:100BE0008B017A010DC0F80161918F01E881F981D3
:100BF0000190F081E02DCE0109950894E108F108FB
:100C0000E114F10481F7DF91CF911F910F91FF90D3
:100C1000EF900895DC01ED91FC910190F081E02DC1
:100C200009950895DC01ED91FC910280F381E02D9E
:100C300009950895CF93DF93EC016DE00E940A06B9
:100C4000CE016AE00E940A06DF91CF910895CF930A
:100C5000DF93EC010E941206CE010E941A06DF917A
:100C6000CF910895629FD001739FF001829FE00DA4
:100C7000F11D649FE00DF11D929FF00D839FF00D1B
:100C8000749FF00D659FF00D9927729FB00DE11DC7
:100C9000F91F639FB00DE11DF91FBD01CF011124A4
:100CA0000895AA1BBB1B51E107C0AA1FBB1FA617B3
:100CB000B70710F0A61BB70B881F991F5A95A9F705
:100CC00080959095BC01CD01089597FB092E0726CC
:100CD0000AD077FD04D0E5DF06D000201AF4709525
:100CE00061957F4F0895F6F7909581959F4F0895F0
:100CF000A1E21A2EAA1BBB1BFD010DC0AA1FBB1F20
:100D0000EE1FFF1FA217B307E407F50720F0A21B91
:100D1000B30BE40BF50B661F771F881F991F1A94FE
:100D200069F760957095809590959B01AC01BD0128
:100D3000CF01089597FB092E05260ED057FD04D04C
:100D4000D7DF0AD0001C38F4509540953095219596
:100D50003F4F4F4F5F4F0895F6F7909580957095F0
:100D600061957F4F8F4F9F4F0895EE0FFF1F0590A6
:0A0D7000F491E02D0994F894FFCFF0
:100D7A005072696E74696E6720746865207469744C
:100D8A006C65004E6F6B69612036313030204C4300
:100D9A00442044656D6F005072696E74696E6720F5
:100DAA0074686520636F6E74656E747300506F7734
:100DBA00657265642062792041726475696E6F009C
:100DCA00417765736F6D6520636F64696E670A6248
:100DDA007920436F736D696E20476F72676F766112
:100DEA006E0047504C206C6962726172793A200A2F
:100DFA00777777322E63732E6D616E2E61632E754F
:100E0A006B2F7E676F72676F7663392F61726475B5
:100E1A00696E6F2E68746D6C0059656C6C6F772003
:100E2A00636F6C6F722074657374004379616E200E
:100E3A00636F6C6F722074657374004D6167656EC1
:100E4A00746120636F6C6F72207465737400446FF1
:100E5A006E652C20656E746572696E6720656E64B6
:100E6A006C657373206C6F6F700053746172746970
:100E7A006E6700446F6E652073657474696E6720CF
:100E8A00757020746865204C43440000000000001F
:100E9A0000065F06000703000703247E247E24243D
:100EAA002B6A120063130864633649562050000700
:100EBA00030000003E41000000413E0000083E1CC5
:100ECA003E0808083E080800E06000000808080814
:100EDA0008006060000020100804023E5149453EA7
:100EEA0000427F4000625149494622494949361821
:100EFA0014127F102F494949313C4A49493001713E
:100F0A000905033649494936064949291E006C6CC8
:100F1A00000000EC6C000008142241002424242460
:100F2A0024004122140802015909063E415D551E5A
:100F3A007E0909097E7F494949363E414141227F5E
:100F4A004141413E7F494949417F090909013E41E1
:100F5A0049497A7F0808087F00417F4100304040B4
:100F6A00403F7F081422417F404040407F020402F4
:100F7A007F7F0204087F3E4141413E7F09090906FD
:100F8A003E4151215E7F09091966264949493201C4
:100F9A00017F01013F4040403F1F2040201F3F404A
:100FAA003C403F63140814630708700807714945F9
:100FBA004300007F41410002040810200041417FA4
:100FCA000004020102048080808080000307000080
:100FDA0020545454787F444444383844444428388C
:100FEA004444447F3854545418087E09090018A40C
:100FFA00A4A47C7F0404780000007D000040808463
:10100A007D007F1028440000007F40007C04180403
:10101A00787C040478003844444438FC4444443816
:10102A0038444444FC447844040808545454200482
:10103A003E4424003C40207C001C2040201C3C6094
:10104A0030603C6C10106C009CA0603C00645454EE
:10105A004C00083E41410000007F00000041413E33
:10106A00080201020100000000008305D005E9051D
:00000001FF
